{
  "contractName": "ArtworkHelper",
  "abi": [
    {
      "anonymous": false,
      "inputs": [
        {
          "indexed": false,
          "internalType": "uint256",
          "name": "artworkId",
          "type": "uint256"
        },
        {
          "indexed": false,
          "internalType": "string",
          "name": "name",
          "type": "string"
        },
        {
          "indexed": false,
          "internalType": "bytes3",
          "name": "bgcolor",
          "type": "bytes3"
        },
        {
          "indexed": false,
          "internalType": "uint256",
          "name": "params",
          "type": "uint256"
        }
      ],
      "name": "NewArtwork",
      "type": "event"
    },
    {
      "anonymous": false,
      "inputs": [
        {
          "indexed": true,
          "internalType": "address",
          "name": "previousOwner",
          "type": "address"
        },
        {
          "indexed": true,
          "internalType": "address",
          "name": "newOwner",
          "type": "address"
        }
      ],
      "name": "OwnershipTransferred",
      "type": "event"
    },
    {
      "constant": true,
      "inputs": [
        {
          "internalType": "uint256",
          "name": "",
          "type": "uint256"
        }
      ],
      "name": "artworkToOwner",
      "outputs": [
        {
          "internalType": "address",
          "name": "",
          "type": "address"
        }
      ],
      "payable": false,
      "stateMutability": "view",
      "type": "function"
    },
    {
      "constant": true,
      "inputs": [
        {
          "internalType": "uint256",
          "name": "",
          "type": "uint256"
        }
      ],
      "name": "artworks",
      "outputs": [
        {
          "internalType": "string",
          "name": "name",
          "type": "string"
        },
        {
          "internalType": "uint256",
          "name": "params",
          "type": "uint256"
        },
        {
          "internalType": "bytes3",
          "name": "bgcolor",
          "type": "bytes3"
        },
        {
          "internalType": "uint32",
          "name": "readyTime",
          "type": "uint32"
        },
        {
          "internalType": "uint32",
          "name": "rating",
          "type": "uint32"
        },
        {
          "internalType": "uint32",
          "name": "raters",
          "type": "uint32"
        },
        {
          "internalType": "uint8",
          "name": "level",
          "type": "uint8"
        }
      ],
      "payable": false,
      "stateMutability": "view",
      "type": "function"
    },
    {
      "constant": false,
      "inputs": [],
      "name": "createRandomArtwork",
      "outputs": [],
      "payable": false,
      "stateMutability": "nonpayable",
      "type": "function"
    },
    {
      "constant": true,
      "inputs": [],
      "name": "isOwner",
      "outputs": [
        {
          "internalType": "bool",
          "name": "",
          "type": "bool"
        }
      ],
      "payable": false,
      "stateMutability": "view",
      "type": "function"
    },
    {
      "constant": true,
      "inputs": [],
      "name": "owner",
      "outputs": [
        {
          "internalType": "address",
          "name": "",
          "type": "address"
        }
      ],
      "payable": false,
      "stateMutability": "view",
      "type": "function"
    },
    {
      "constant": false,
      "inputs": [],
      "name": "renounceOwnership",
      "outputs": [],
      "payable": false,
      "stateMutability": "nonpayable",
      "type": "function"
    },
    {
      "constant": false,
      "inputs": [
        {
          "internalType": "address",
          "name": "newOwner",
          "type": "address"
        }
      ],
      "name": "transferOwnership",
      "outputs": [],
      "payable": false,
      "stateMutability": "nonpayable",
      "type": "function"
    },
    {
      "constant": false,
      "inputs": [
        {
          "internalType": "uint256",
          "name": "_fee",
          "type": "uint256"
        }
      ],
      "name": "setLevelUpFee",
      "outputs": [],
      "payable": false,
      "stateMutability": "nonpayable",
      "type": "function"
    },
    {
      "constant": false,
      "inputs": [
        {
          "internalType": "uint8",
          "name": "_level",
          "type": "uint8"
        }
      ],
      "name": "setMaxLevel",
      "outputs": [],
      "payable": false,
      "stateMutability": "nonpayable",
      "type": "function"
    },
    {
      "constant": false,
      "inputs": [
        {
          "internalType": "uint256",
          "name": "_artworkId",
          "type": "uint256"
        }
      ],
      "name": "levelUp",
      "outputs": [],
      "payable": true,
      "stateMutability": "payable",
      "type": "function"
    },
    {
      "constant": false,
      "inputs": [],
      "name": "withdraw",
      "outputs": [],
      "payable": false,
      "stateMutability": "nonpayable",
      "type": "function"
    },
    {
      "constant": false,
      "inputs": [
        {
          "internalType": "uint256",
          "name": "_artworkId",
          "type": "uint256"
        }
      ],
      "name": "changeParams",
      "outputs": [],
      "payable": false,
      "stateMutability": "nonpayable",
      "type": "function"
    },
    {
      "constant": false,
      "inputs": [
        {
          "internalType": "uint256",
          "name": "_artworkId",
          "type": "uint256"
        },
        {
          "internalType": "string",
          "name": "_newName",
          "type": "string"
        }
      ],
      "name": "changeName",
      "outputs": [],
      "payable": false,
      "stateMutability": "nonpayable",
      "type": "function"
    },
    {
      "constant": false,
      "inputs": [
        {
          "internalType": "uint256",
          "name": "_artworkId",
          "type": "uint256"
        },
        {
          "internalType": "bytes3",
          "name": "_bgcolor",
          "type": "bytes3"
        }
      ],
      "name": "changeBgcolor",
      "outputs": [],
      "payable": false,
      "stateMutability": "nonpayable",
      "type": "function"
    },
    {
      "constant": false,
      "inputs": [
        {
          "internalType": "uint256",
          "name": "_artworkId",
          "type": "uint256"
        },
        {
          "internalType": "uint32",
          "name": "_rating",
          "type": "uint32"
        }
      ],
      "name": "changeRating",
      "outputs": [],
      "payable": false,
      "stateMutability": "nonpayable",
      "type": "function"
    },
    {
      "constant": true,
      "inputs": [
        {
          "internalType": "address",
          "name": "_owner",
          "type": "address"
        }
      ],
      "name": "getArtworksByOwner",
      "outputs": [
        {
          "internalType": "uint256[]",
          "name": "",
          "type": "uint256[]"
        }
      ],
      "payable": false,
      "stateMutability": "view",
      "type": "function"
    },
    {
      "constant": true,
      "inputs": [],
      "name": "getArtworkCount",
      "outputs": [
        {
          "internalType": "uint256",
          "name": "",
          "type": "uint256"
        }
      ],
      "payable": false,
      "stateMutability": "view",
      "type": "function"
    }
  ],
  "bytecode": "0x60806040819052600c60015564e8d4a5100060025560006003819055662386f26fc100006007556008805460ff1916600517905580546001600160a01b03191633178082556001600160a01b0316917f8be0079c531659141344cd1fd0a4f28419497f9722a3daafe3b4186f6b6457e0908290a3610ffa806100826000396000f3fe6080604052600436106100fe5760003560e01c80638f32d59b11610095578063ccf670f811610064578063ccf670f8146103d9578063df30ad9014610403578063f14ce36714610486578063f2e8fa89146104c0578063f2fde38b146104ea576100fe565b80638f32d59b146102cf57806390415c2f146102f8578063b58a46301461032e578063c39cbef114610355576100fe565b80634b602673116100d15780634b60267314610179578063715018a61461025f5780638b2bdf25146102745780638da5cb5b146102ba576100fe565b80630ce90ec2146101035780631a329a7f1461012257806321c87ee8146101375780633ccfd60b14610164575b600080fd5b6101206004803603602081101561011957600080fd5b503561051d565b005b34801561012e57600080fd5b506101206105b5565b34801561014357600080fd5b506101206004803603602081101561015a57600080fd5b503560ff1661061a565b34801561017057600080fd5b50610120610641565b34801561018557600080fd5b506101a36004803603602081101561019c57600080fd5b5035610698565b6040805160208082018990526001600160e81b031988169282019290925263ffffffff80871660608301528581166080830152841660a082015260ff831660c082015260e08082528951908201528851909182916101008301918b019080838360005b8381101561021e578181015183820152602001610206565b50505050905090810190601f16801561024b5780820380516001836020036101000a031916815260200191505b509850505050505050505060405180910390f35b34801561026b57600080fd5b50610120610787565b34801561028057600080fd5b5061029e6004803603602081101561029757600080fd5b50356107e2565b604080516001600160a01b039092168252519081900360200190f35b3480156102c657600080fd5b5061029e6107fd565b3480156102db57600080fd5b506102e461080d565b604080519115158252519081900360200190f35b34801561030457600080fd5b506101206004803603604081101561031b57600080fd5b508035906020013563ffffffff1661081e565b34801561033a57600080fd5b506103436108f5565b60408051918252519081900360200190f35b34801561036157600080fd5b506101206004803603604081101561037857600080fd5b8135919081019060408101602082013564010000000081111561039a57600080fd5b8201836020820111156103ac57600080fd5b803590602001918460018302840111640100000000831117156103ce57600080fd5b5090925090506108fb565b3480156103e557600080fd5b50610120600480360360208110156103fc57600080fd5b5035610950565b34801561040f57600080fd5b506104366004803603602081101561042657600080fd5b50356001600160a01b0316610966565b60408051602080825283518183015283519192839290830191858101910280838360005b8381101561047257818101518382015260200161045a565b505050509050019250505060405180910390f35b34801561049257600080fd5b50610120600480360360408110156104a957600080fd5b50803590602001356001600160e81b031916610a1b565b3480156104cc57600080fd5b50610120600480360360208110156104e357600080fd5b5035610a7e565b3480156104f657600080fd5b506101206004803603602081101561050d57600080fd5b50356001600160a01b0316610b1c565b6008546004805460ff90921691839183918390811061053857fe5b6000918252602090912060039091020160020154600160781b900460ff161061056057600080fd5b600754341461056e57600080fd5b6004838154811061057b57fe5b600091825260209091206002600390920201018054600160ff600160781b808404821692909201160260ff60781b19909116179055505050565b33600090815260066020526040902054156105cf57600080fd5b60006105d9610b36565b60408051808201909152600b81526a4e657720417274776f726b60a81b6020820152606482069091039150610617906001600160e81b031983610b79565b50565b61062261080d565b61062b57600080fd5b6008805460ff191660ff92909216919091179055565b61064961080d565b61065257600080fd5b600061065c6107fd565b6040519091506001600160a01b038216904780156108fc02916000818181858888f19350505050158015610694573d6000803e3d6000fd5b5050565b600481815481106106a557fe5b60009182526020918290206003919091020180546040805160026001841615610100026000190190931692909204601f81018590048502830185019091528082529193509183919083018282801561073e5780601f106107135761010080835404028352916020019161073e565b820191906000526020600020905b81548152906001019060200180831161072157829003601f168201915b50505050600183015460029093015491929160e881901b91506301000000810463ffffffff90811691600160381b8104821691600160581b82041690600160781b900460ff1687565b61078f61080d565b61079857600080fd5b600080546040516001600160a01b03909116907f8be0079c531659141344cd1fd0a4f28419497f9722a3daafe3b4186f6b6457e0908390a3600080546001600160a01b0319169055565b6005602052600090815260409020546001600160a01b031681565b6000546001600160a01b03165b90565b6000546001600160a01b0316331490565b600a8163ffffffff1611158015610833575060015b61083c57600080fd5b806004838154811061084a57fe5b906000526020600020906003020160020160079054906101000a900463ffffffff16016004838154811061087a57fe5b906000526020600020906003020160020160076101000a81548163ffffffff021916908363ffffffff160217905550600482815481106108b657fe5b600091825260209091206002600390920201018054600163ffffffff600160581b808404821692909201160263ffffffff60581b199091161790555050565b60045490565b60008381526005602052604090205483906001600160a01b0316331461092057600080fd5b82826004868154811061092f57fe5b600091825260209091206109499360039092020191610ebf565b5050505050565b61095861080d565b61096157600080fd5b600755565b60608060066000846001600160a01b03166001600160a01b03168152602001908152602001600020546040519080825280602002602001820160405280156109b8578160200160208202803883390190505b5090506000805b600454811015610a12576000818152600560205260409020546001600160a01b0386811691161415610a0a57808383815181106109f857fe5b60209081029190910101526001909101905b6001016109bf565b50909392505050565b60008281526005602052604090205482906001600160a01b03163314610a4057600080fd5b8160048481548110610a4e57fe5b906000526020600020906003020160020160006101000a81548162ffffff021916908360e81c0217905550505050565b60008181526005602052604090205481906001600160a01b03163314610aa357600080fd5b600060048381548110610ab257fe5b90600052602060002090600302019050610acb81610dc9565b610ad457600080fd5b6002810154600160781b900460ff166000610aed610b36565b9050606481069003600160ff83161115610b0c57610b0a82610de1565b015b6001830181905561094983610e27565b610b2461080d565b610b2d57600080fd5b61061781610e51565b60408051426020808301919091523360601b828401528251603481840301815260549092019092528051910120600254600091908181610b7257fe5b0691505090565b6040805160e08101825284815260208082018490526001600160e81b03198516928201929092526003805463ffffffff4290910116606083015260006080830181905260a08301819052600160c0840181905260048054808301808355918452855180519497939692959294919092027f8a35acfbc15ff81a39ae7d344fd709f28e8600b4aa8c65c6b64bfe7fe36bd19b0192610c1a928492910190610f3d565b50602082810151600183810191909155604080850151600290940180546060808801516080808a015160a0808c015160c0909c015162ffffff1990961660e89b909b1c9a909a1766ffffffff0000001916630100000063ffffffff94851602176affffffff000000000000001916600160381b918416919091021763ffffffff60581b1916600160581b92909a16919091029890981760ff60781b1916600160781b60ff9093169290920291909117909155969095036000818152600584528681208054336001600160a01b03199091168117909155815260068452868120805490930190925585518181526001600160e81b03198b16968101969096529585018890528482018481528a519486019490945289519596507fb2e1b874f6869276607c1531036e55b20dde566068eeba3c0d70a28da929ad839587958b958b958b9592949193908501928801918190849084905b83811015610d86578181015183820152602001610d6e565b50505050905090810190601f168015610db35780820380516001836020036101000a031916815260200191505b509550505050505060405180910390a150505050565b6002015442630100000090910463ffffffff16111590565b60408051426020808301919091523360601b828401528251603481840301815260549092019092528051910120600090819060ff84169081610e1f57fe5b069392505050565b60035442018160020160036101000a81548163ffffffff021916908363ffffffff16021790555050565b6001600160a01b038116610e6457600080fd5b600080546040516001600160a01b03808516939216917f8be0079c531659141344cd1fd0a4f28419497f9722a3daafe3b4186f6b6457e091a3600080546001600160a01b0319166001600160a01b0392909216919091179055565b828054600181600116156101000203166002900490600052602060002090601f016020900481019282601f10610f005782800160ff19823516178555610f2d565b82800160010185558215610f2d579182015b82811115610f2d578235825591602001919060010190610f12565b50610f39929150610fab565b5090565b828054600181600116156101000203166002900490600052602060002090601f016020900481019282601f10610f7e57805160ff1916838001178555610f2d565b82800160010185558215610f2d579182015b82811115610f2d578251825591602001919060010190610f90565b61080a91905b80821115610f395760008155600101610fb156fea265627a7a723158203047412275d7f2c764ef143ea1ff7f5af6aca073f2dcfe8f6761c042fc92152764736f6c63430005100032",
  "source": "pragma solidity >=0.4.22 <0.9.0;\n\nimport \"./artworkstudio.sol\";\n\ncontract ArtworkHelper is ArtworkBuilder {\n\n uint levelUpFee = 0.01 ether;\n uint8 maxLevel = 5;\n\n  modifier onlyOwnerOf(uint _artworkId) {\n    require(msg.sender == artworkToOwner[_artworkId]);\n    _;\n  }  \n\n  modifier aboveLevel(uint8 _level, uint _artworkId) {\n    require(artworks[_artworkId].level >= _level);\n    _;\n  }\n\n  modifier belowLevel(uint8 _level, uint _artworkId) {\n    require(artworks[_artworkId].level < _level);\n    _;\n  }  \n\n  function setLevelUpFee(uint _fee) external onlyOwner {\n    levelUpFee = _fee;\n  }\n\n  function setMaxLevel(uint8 _level) external onlyOwner {\n    maxLevel = _level;\n  }\n\n  function levelUp(uint _artworkId) external payable belowLevel(maxLevel, _artworkId) {\n    require(msg.value == levelUpFee);\n    artworks[_artworkId].level++;\n  }\n\n  function withdraw() external onlyOwner {\n    address payable _owner = address(uint160(owner()));\n    _owner.transfer(address(this).balance);\n  }\n\n  function _triggerCooldown(Artwork storage _artwork) internal {\n    _artwork.readyTime = uint32(now + cooldownTime);\n  }\n\n  function _isReady(Artwork storage _artwork) internal view returns (bool) {\n      return (_artwork.readyTime <= now);\n  }  \n\n  function randomSketch(uint8 _level) internal view returns (uint) {\n      uint randomLevel = uint(keccak256(abi.encodePacked(now, msg.sender))) % _level;\n      return randomLevel;\n  }\n\n  function changeParams(uint _artworkId) external onlyOwnerOf(_artworkId) {\n    Artwork storage myArtwork = artworks[_artworkId];\n    require(_isReady(myArtwork));\n    uint8 _level = myArtwork.level;\n    uint randParams = _generateRandomParams();\n    randParams = randParams - (randParams % 100);\n    if (_level > 1) {\n      randParams = randParams + randomSketch(_level);\n    }\n    myArtwork.params = randParams;\n    _triggerCooldown(myArtwork);\n  }\n\n  function changeName(uint _artworkId, string calldata _newName) external onlyOwnerOf(_artworkId) {\n    artworks[_artworkId].name = _newName;\n  }\n\n  function changeBgcolor(uint _artworkId, bytes3 _bgcolor) external onlyOwnerOf(_artworkId) {\n    artworks[_artworkId].bgcolor = _bgcolor;\n  }\n\n  function changeRating(uint _artworkId, uint32 _rating) external {\n    require((_rating <= 10) && (_rating >= 0));\n    artworks[_artworkId].rating = artworks[_artworkId].rating + _rating;\n    artworks[_artworkId].raters++;\n  }  \n\n  function getArtworksByOwner(address _owner) external view returns(uint[] memory) {\n    uint[] memory result = new uint[](ownerArtworkCount[_owner]);\n    uint counter = 0;\n    for (uint i = 0; i < artworks.length; i++) {\n      if (artworkToOwner[i] == _owner) {\n        result[counter] = i;\n        counter++;\n      }\n    }\n    return result;\n  }\n\n  function getArtworkCount() external view returns(uint) {\n    return artworks.length;\n  }\n\n}\n",
  "sourcePath": "/Users/philippmoehl/Documents/Blockchain/fart_backend/contracts/artworkhelper.sol",
  "compiler": {
    "name": "solc",
    "version": "0.5.16+commit.9c3226ce.Emscripten.clang"
  },
  "schemaVersion": "3.2.3",
  "updatedAt": "2021-04-22T15:03:54.799Z",
  "devdoc": {
    "methods": {
      "isOwner()": {
        "return": "true if `msg.sender` is the owner of the contract."
      },
      "owner()": {
        "return": "the address of the owner."
      },
      "renounceOwnership()": {
        "details": "Allows the current owner to relinquish control of the contract."
      },
      "transferOwnership(address)": {
        "details": "Allows the current owner to transfer control of the contract to a newOwner.",
        "params": {
          "newOwner": "The address to transfer ownership to."
        }
      }
    }
  },
  "userdoc": {
    "methods": {
      "renounceOwnership()": {
        "notice": "Renouncing to ownership will leave the contract without an owner. It will not be possible to call the functions with the `onlyOwner` modifier anymore."
      }
    }
  }
}