{
  "contractName": "ArtworkBuilder",
  "abi": [
    {
      "anonymous": false,
      "inputs": [
        {
          "indexed": false,
          "internalType": "uint256",
          "name": "artworkId",
          "type": "uint256"
        },
        {
          "indexed": false,
          "internalType": "string",
          "name": "name",
          "type": "string"
        },
        {
          "indexed": false,
          "internalType": "bytes3",
          "name": "bgcolor",
          "type": "bytes3"
        },
        {
          "indexed": false,
          "internalType": "uint256",
          "name": "params",
          "type": "uint256"
        }
      ],
      "name": "NewArtwork",
      "type": "event"
    },
    {
      "anonymous": false,
      "inputs": [
        {
          "indexed": true,
          "internalType": "address",
          "name": "previousOwner",
          "type": "address"
        },
        {
          "indexed": true,
          "internalType": "address",
          "name": "newOwner",
          "type": "address"
        }
      ],
      "name": "OwnershipTransferred",
      "type": "event"
    },
    {
      "constant": true,
      "inputs": [
        {
          "internalType": "uint256",
          "name": "",
          "type": "uint256"
        }
      ],
      "name": "artworkToOwner",
      "outputs": [
        {
          "internalType": "address",
          "name": "",
          "type": "address"
        }
      ],
      "payable": false,
      "stateMutability": "view",
      "type": "function"
    },
    {
      "constant": true,
      "inputs": [
        {
          "internalType": "uint256",
          "name": "",
          "type": "uint256"
        }
      ],
      "name": "artworks",
      "outputs": [
        {
          "internalType": "string",
          "name": "name",
          "type": "string"
        },
        {
          "internalType": "uint256",
          "name": "params",
          "type": "uint256"
        },
        {
          "internalType": "bytes3",
          "name": "bgcolor",
          "type": "bytes3"
        },
        {
          "internalType": "uint32",
          "name": "readyTime",
          "type": "uint32"
        },
        {
          "internalType": "uint32",
          "name": "rating",
          "type": "uint32"
        },
        {
          "internalType": "uint32",
          "name": "raters",
          "type": "uint32"
        },
        {
          "internalType": "uint8",
          "name": "level",
          "type": "uint8"
        }
      ],
      "payable": false,
      "stateMutability": "view",
      "type": "function"
    },
    {
      "constant": true,
      "inputs": [],
      "name": "isOwner",
      "outputs": [
        {
          "internalType": "bool",
          "name": "",
          "type": "bool"
        }
      ],
      "payable": false,
      "stateMutability": "view",
      "type": "function"
    },
    {
      "constant": true,
      "inputs": [],
      "name": "owner",
      "outputs": [
        {
          "internalType": "address",
          "name": "",
          "type": "address"
        }
      ],
      "payable": false,
      "stateMutability": "view",
      "type": "function"
    },
    {
      "constant": false,
      "inputs": [],
      "name": "renounceOwnership",
      "outputs": [],
      "payable": false,
      "stateMutability": "nonpayable",
      "type": "function"
    },
    {
      "constant": false,
      "inputs": [
        {
          "internalType": "address",
          "name": "newOwner",
          "type": "address"
        }
      ],
      "name": "transferOwnership",
      "outputs": [],
      "payable": false,
      "stateMutability": "nonpayable",
      "type": "function"
    },
    {
      "constant": false,
      "inputs": [],
      "name": "createRandomArtwork",
      "outputs": [],
      "payable": false,
      "stateMutability": "nonpayable",
      "type": "function"
    }
  ],
  "bytecode": "0x60806040819052600c60015564e8d4a510006002556000600381905580546001600160a01b03191633178082556001600160a01b0316917f8be0079c531659141344cd1fd0a4f28419497f9722a3daafe3b4186f6b6457e0908290a36107c38061006a6000396000f3fe608060405234801561001057600080fd5b506004361061007d5760003560e01c80638b2bdf251161005b5780638b2bdf251461016d5780638da5cb5b146101a65780638f32d59b146101ae578063f2fde38b146101ca5761007d565b80631a329a7f146100825780634b6026731461008c578063715018a614610165575b600080fd5b61008a6101f0565b005b6100a9600480360360208110156100a257600080fd5b5035610255565b6040805160208082018990526001600160e81b031988169282019290925263ffffffff80871660608301528581166080830152841660a082015260ff831660c082015260e08082528951908201528851909182916101008301918b019080838360005b8381101561012457818101518382015260200161010c565b50505050905090810190601f1680156101515780820380516001836020036101000a031916815260200191505b509850505050505050505060405180910390f35b61008a610344565b61018a6004803603602081101561018357600080fd5b503561039f565b604080516001600160a01b039092168252519081900360200190f35b61018a6103ba565b6101b66103ca565b604080519115158252519081900360200190f35b61008a600480360360208110156101e057600080fd5b50356001600160a01b03166103db565b336000908152600660205260409020541561020a57600080fd5b60006102146103f5565b60408051808201909152600b81526a4e657720417274776f726b60a81b6020820152606482069091039150610252906001600160e81b031983610438565b50565b6004818154811061026257fe5b60009182526020918290206003919091020180546040805160026001841615610100026000190190931692909204601f8101859004850283018501909152808252919350918391908301828280156102fb5780601f106102d0576101008083540402835291602001916102fb565b820191906000526020600020905b8154815290600101906020018083116102de57829003601f168201915b50505050600183015460029093015491929160e881901b91506301000000810463ffffffff90811691600160381b8104821691600160581b82041690600160781b900460ff1687565b61034c6103ca565b61035557600080fd5b600080546040516001600160a01b03909116907f8be0079c531659141344cd1fd0a4f28419497f9722a3daafe3b4186f6b6457e0908390a3600080546001600160a01b0319169055565b6005602052600090815260409020546001600160a01b031681565b6000546001600160a01b03165b90565b6000546001600160a01b0316331490565b6103e36103ca565b6103ec57600080fd5b61025281610688565b60408051426020808301919091523360601b82840152825160348184030181526054909201909252805191012060025460009190818161043157fe5b0691505090565b6040805160e08101825284815260208082018490526001600160e81b03198516928201929092526003805463ffffffff4290910116606083015260006080830181905260a08301819052600160c0840181905260048054808301808355918452855180519497939692959294919092027f8a35acfbc15ff81a39ae7d344fd709f28e8600b4aa8c65c6b64bfe7fe36bd19b01926104d99284929101906106f6565b50602082810151600183810191909155604080850151600290940180546060808801516080808a015160a0808c015160c0909c015162ffffff1990961660e89b909b1c9a909a1766ffffffff0000001916630100000063ffffffff94851602176affffffff000000000000001916600160381b918416919091021763ffffffff60581b1916600160581b92909a16919091029890981760ff60781b1916600160781b60ff9093169290920291909117909155969095036000818152600584528681208054336001600160a01b03199091168117909155815260068452868120805490930190925585518181526001600160e81b03198b16968101969096529585018890528482018481528a519486019490945289519596507fb2e1b874f6869276607c1531036e55b20dde566068eeba3c0d70a28da929ad839587958b958b958b9592949193908501928801918190849084905b8381101561064557818101518382015260200161062d565b50505050905090810190601f1680156106725780820380516001836020036101000a031916815260200191505b509550505050505060405180910390a150505050565b6001600160a01b03811661069b57600080fd5b600080546040516001600160a01b03808516939216917f8be0079c531659141344cd1fd0a4f28419497f9722a3daafe3b4186f6b6457e091a3600080546001600160a01b0319166001600160a01b0392909216919091179055565b828054600181600116156101000203166002900490600052602060002090601f016020900481019282601f1061073757805160ff1916838001178555610764565b82800160010185558215610764579182015b82811115610764578251825591602001919060010190610749565b50610770929150610774565b5090565b6103c791905b80821115610770576000815560010161077a56fea265627a7a723158204faaa2df36f04b232a343f738e86c74e2e779e083ad03d28cb67155cbca5e32d64736f6c63430005100032",
  "source": "/// @title Handles first generation of artworks and sets up the contract\n///  This wrapper of ReverseAuction exists only so that users can create\n///  auctions with only one transaction.\n\npragma solidity >=0.4.22 <0.9.0;\n\nimport \"./ownable.sol\";\nimport \"./safemath.sol\";\n\ncontract ArtworkBuilder is Ownable {\n\n\t// artwork \"params\" will contains informations:\n\t// 0000000000 - randomSeed with 10000000000 possibilies \n\t// + 00 - one of up to 100 sketch algorithms\n\n\tusing SafeMath for uint256;\n\tusing SafeMath32 for uint32;\n\tusing SafeMath16 for uint16;\n\n\tevent NewArtwork(uint artworkId, string name, bytes3 bgcolor, uint params);\n\n\tuint paramDigits = 12;\n\tuint paramsModulus = 10 ** paramDigits;\n\tuint cooldownTime = 0 days;\n\n\tstruct Artwork {\n\t\tstring name;\n\t\tuint params;\n\t\tbytes3 bgcolor;\n\t\tuint32 readyTime;\n\t\tuint32 rating;\n\t\tuint32 raters;\n\t\tuint8 level;\n\t}\n\n\tArtwork[] public artworks;\n\n    mapping (uint => address) public artworkToOwner;\n    mapping (address => uint) ownerArtworkCount;\n\n\tfunction _createArtwork (string memory _name, bytes3 _bgcolor, uint _params) internal {\n\t\tuint id = artworks.push(Artwork(_name, _params, _bgcolor, uint32(now + cooldownTime), 0, 0, 1)) - 1;\n\t\tartworkToOwner[id] = msg.sender;\n        ownerArtworkCount[msg.sender]++;\n        emit NewArtwork(id, _name, _bgcolor, _params);\n\t}\n\n\tfunction _generateRandomParams() internal view returns (uint) {\n\t\tuint rand = uint(keccak256(abi.encodePacked(now, msg.sender)));\n\t\treturn rand % paramsModulus;\n\t}\n\n\tfunction createRandomArtwork() public {\n\t\t// first artwork has sketch set to 00 -- free beginner sketch\n\t\trequire(ownerArtworkCount[msg.sender] == 0);\n        uint randParams = _generateRandomParams();\n        randParams = randParams - (randParams % 100);\n        _createArtwork(\"New Artwork\", 0xffffff, randParams);\n    }\n}\n",
  "sourcePath": "/Users/philippmoehl/Documents/Blockchain/fart_backend/contracts/artworkstudio.sol",
  "compiler": {
    "name": "solc",
    "version": "0.5.16+commit.9c3226ce.Emscripten.clang"
  },
  "schemaVersion": "3.2.3",
  "updatedAt": "2021-04-22T15:03:54.801Z",
  "devdoc": {
    "methods": {
      "isOwner()": {
        "return": "true if `msg.sender` is the owner of the contract."
      },
      "owner()": {
        "return": "the address of the owner."
      },
      "renounceOwnership()": {
        "details": "Allows the current owner to relinquish control of the contract."
      },
      "transferOwnership(address)": {
        "details": "Allows the current owner to transfer control of the contract to a newOwner.",
        "params": {
          "newOwner": "The address to transfer ownership to."
        }
      }
    }
  },
  "userdoc": {
    "methods": {
      "renounceOwnership()": {
        "notice": "Renouncing to ownership will leave the contract without an owner. It will not be possible to call the functions with the `onlyOwner` modifier anymore."
      }
    }
  }
}